{
  "_format": "hh-sol-artifact-1",
  "contractName": "TokenFactory",
  "sourceName": "contracts/TokenFactory.sol",
  "abi": [
    {
      "anonymous": false,
      "inputs": [
        {
          "indexed": true,
          "internalType": "uint256",
          "name": "tokenId",
          "type": "uint256"
        },
        {
          "indexed": true,
          "internalType": "address",
          "name": "tokenAddress",
          "type": "address"
        },
        {
          "indexed": true,
          "internalType": "address",
          "name": "owner",
          "type": "address"
        },
        {
          "indexed": false,
          "internalType": "string",
          "name": "name",
          "type": "string"
        },
        {
          "indexed": false,
          "internalType": "string",
          "name": "symbol",
          "type": "string"
        },
        {
          "indexed": false,
          "internalType": "uint256",
          "name": "totalSupply",
          "type": "uint256"
        }
      ],
      "name": "TokenCreated",
      "type": "event"
    },
    {
      "inputs": [
        {
          "internalType": "string",
          "name": "name",
          "type": "string"
        },
        {
          "internalType": "string",
          "name": "symbol",
          "type": "string"
        },
        {
          "internalType": "string",
          "name": "imageUrl",
          "type": "string"
        },
        {
          "internalType": "uint256",
          "name": "initialSupply",
          "type": "uint256"
        },
        {
          "internalType": "address",
          "name": "owner",
          "type": "address"
        }
      ],
      "name": "createToken",
      "outputs": [
        {
          "internalType": "uint256",
          "name": "tokenId",
          "type": "uint256"
        }
      ],
      "stateMutability": "payable",
      "type": "function"
    },
    {
      "inputs": [
        {
          "internalType": "uint256",
          "name": "tokenId",
          "type": "uint256"
        }
      ],
      "name": "getTokenAddress",
      "outputs": [
        {
          "internalType": "address",
          "name": "",
          "type": "address"
        }
      ],
      "stateMutability": "view",
      "type": "function"
    },
    {
      "inputs": [
        {
          "internalType": "uint256",
          "name": "tokenId",
          "type": "uint256"
        }
      ],
      "name": "getTokenInfo",
      "outputs": [
        {
          "components": [
            {
              "internalType": "address",
              "name": "tokenAddress",
              "type": "address"
            },
            {
              "internalType": "address",
              "name": "owner",
              "type": "address"
            },
            {
              "internalType": "uint64",
              "name": "createdAt",
              "type": "uint64"
            },
            {
              "internalType": "uint64",
              "name": "totalSupply",
              "type": "uint64"
            },
            {
              "internalType": "uint128",
              "name": "initialLiquidity",
              "type": "uint128"
            }
          ],
          "internalType": "struct TokenFactory.TokenInfo",
          "name": "",
          "type": "tuple"
        }
      ],
      "stateMutability": "view",
      "type": "function"
    },
    {
      "inputs": [],
      "name": "getTotalTokens",
      "outputs": [
        {
          "internalType": "uint256",
          "name": "",
          "type": "uint256"
        }
      ],
      "stateMutability": "view",
      "type": "function"
    },
    {
      "inputs": [
        {
          "internalType": "address",
          "name": "user",
          "type": "address"
        }
      ],
      "name": "getUserTokens",
      "outputs": [
        {
          "internalType": "uint256[]",
          "name": "",
          "type": "uint256[]"
        }
      ],
      "stateMutability": "view",
      "type": "function"
    },
    {
      "inputs": [],
      "name": "nextTokenId",
      "outputs": [
        {
          "internalType": "uint256",
          "name": "",
          "type": "uint256"
        }
      ],
      "stateMutability": "view",
      "type": "function"
    },
    {
      "inputs": [
        {
          "internalType": "uint256",
          "name": "",
          "type": "uint256"
        }
      ],
      "name": "tokens",
      "outputs": [
        {
          "internalType": "address",
          "name": "tokenAddress",
          "type": "address"
        },
        {
          "internalType": "address",
          "name": "owner",
          "type": "address"
        },
        {
          "internalType": "uint64",
          "name": "createdAt",
          "type": "uint64"
        },
        {
          "internalType": "uint64",
          "name": "totalSupply",
          "type": "uint64"
        },
        {
          "internalType": "uint128",
          "name": "initialLiquidity",
          "type": "uint128"
        }
      ],
      "stateMutability": "view",
      "type": "function"
    },
    {
      "inputs": [
        {
          "internalType": "address",
          "name": "",
          "type": "address"
        },
        {
          "internalType": "uint256",
          "name": "",
          "type": "uint256"
        }
      ],
      "name": "userTokens",
      "outputs": [
        {
          "internalType": "uint256",
          "name": "",
          "type": "uint256"
        }
      ],
      "stateMutability": "view",
      "type": "function"
    },
    {
      "stateMutability": "payable",
      "type": "receive"
    }
  ],
  "bytecode": "0x608060405234801561001057600080fd5b50611d5c806100206000396000f3fe608060405260043610620000895760003560e01c80638aea867911620000545780638aea8679146200021e5780638c7a63ae1462000235578063f08b82e61462000375578063f9f411d8146200038c57600080fd5b80634f64b2be1462000096578063519dc8d2146200017057806367ccdf3814620001a457806375794a3c14620001f757600080fd5b366200009157005b600080fd5b348015620000a357600080fd5b5062000119620000b5366004620007b0565b6000602081905290815260409020805460018201546002909201546001600160a01b039182169291821691600160a01b900467ffffffffffffffff90811691908116906801000000000000000090046fffffffffffffffffffffffffffffffff1685565b604080516001600160a01b03968716815295909416602086015267ffffffffffffffff928316938501939093521660608301526fffffffffffffffffffffffffffffffff16608082015260a0015b60405180910390f35b3480156200017d57600080fd5b50620001956200018f366004620007e7565b620003b1565b6040516200016791906200080c565b348015620001b157600080fd5b50620001de620001c3366004620007b0565b6000908152602081905260409020546001600160a01b031690565b6040516001600160a01b03909116815260200162000167565b3480156200020457600080fd5b506200020f60025481565b60405190815260200162000167565b6200020f6200022f3660046200089e565b6200041f565b3480156200024257600080fd5b506200030362000254366004620007b0565b6040805160a0810182526000808252602082018190529181018290526060810182905260808101919091525060009081526020818152604091829020825160a08101845281546001600160a01b03908116825260018301549081169382019390935267ffffffffffffffff600160a01b9093048316938101939093526002015490811660608301526fffffffffffffffffffffffffffffffff6801000000000000000090910416608082015290565b604051620001679190600060a0820190506001600160a01b0380845116835280602085015116602084015250604083015167ffffffffffffffff808216604085015280606086015116606085015250506fffffffffffffffffffffffffffffffff608084015116608083015292915050565b3480156200038257600080fd5b506002546200020f565b3480156200039957600080fd5b506200020f620003ab3660046200095d565b62000770565b6001600160a01b0381166000908152600160209081526040918290208054835181840281018401909452808452606093928301828280156200041357602002820191906000526020600020905b815481526020019060010190808311620003fe575b50505050509050919050565b600087158015906200043057508515155b620004825760405162461bcd60e51b815260206004820152601360248201527f496e76616c6964206e616d652f73796d626f6c0000000000000000000000000060448201526064015b60405180910390fd5b60008311620004d45760405162461bcd60e51b815260206004820152600e60248201527f496e76616c696420737570706c79000000000000000000000000000000000000604482015260640162000479565b6001600160a01b0382166200052c5760405162461bcd60e51b815260206004820152600d60248201527f496e76616c6964206f776e657200000000000000000000000000000000000000604482015260640162000479565b600034116200057e5760405162461bcd60e51b815260206004820152601660248201527f43485a206c697175696469747920726571756972656400000000000000000000604482015260640162000479565b60008989898987876040516200059490620007a2565b620005a596959493929190620009b3565b604051809103906000f080158015620005c2573d6000803e3d6000fd5b50600280549192506000620005d78362000a01565b909155506040805160a0810182526001600160a01b03808516808352878216602080850182815267ffffffffffffffff4281168789019081528d8216606089019081526fffffffffffffffffffffffffffffffff34811660808b0190815260008d81528088528c81209b518c54908c167fffffffffffffffffffffffff0000000000000000000000000000000000000000909116178c5595516001808d01805496518816600160a01b027fffffffff0000000000000000000000000000000000000000000000000000000090971692909c169190911794909417909955905160029099018054985190911668010000000000000000027fffffffffffffffff0000000000000000000000000000000000000000000000009098169890921697909717959095179094558184528481528584208054958601815584529092209092018490559151929450909184907fcd476d333d45ece4364b2dcb9dd327cebaf2e6127eb5f54a3f38985124979ca5906200075b908f908f908f908f908d9062000a29565b60405180910390a45098975050505050505050565b600160205281600052604060002081815481106200078d57600080fd5b90600052602060002001600091509150505481565b6112bf8062000a6883390190565b600060208284031215620007c357600080fd5b5035919050565b80356001600160a01b0381168114620007e257600080fd5b919050565b600060208284031215620007fa57600080fd5b6200080582620007ca565b9392505050565b6020808252825182820181905260009190848201906040850190845b81811015620008465783518352928401929184019160010162000828565b50909695505050505050565b60008083601f8401126200086557600080fd5b50813567ffffffffffffffff8111156200087e57600080fd5b6020830191508360208285010111156200089757600080fd5b9250929050565b60008060008060008060008060a0898b031215620008bb57600080fd5b883567ffffffffffffffff80821115620008d457600080fd5b620008e28c838d0162000852565b909a50985060208b0135915080821115620008fc57600080fd5b6200090a8c838d0162000852565b909850965060408b01359150808211156200092457600080fd5b50620009338b828c0162000852565b909550935050606089013591506200094e60808a01620007ca565b90509295985092959890939650565b600080604083850312156200097157600080fd5b6200097c83620007ca565b946020939093013593505050565b81835281816020850137506000828201602090810191909152601f909101601f19169091010190565b608081526000620009c960808301888a6200098a565b8281036020840152620009de8187896200098a565b9150508360408301526001600160a01b0383166060830152979650505050505050565b60006001820162000a2257634e487b7160e01b600052601160045260246000fd5b5060010190565b60608152600062000a3f6060830187896200098a565b828103602084015262000a548186886200098a565b915050826040830152969550505050505056fe60806040523480156200001157600080fd5b50604051620012bf380380620012bf833981016040819052620000349162000417565b80848460036200004583826200053d565b5060046200005482826200053d565b5050506001600160a01b0381166200008757604051631e4fbdf760e01b8152600060048201526024015b60405180910390fd5b620000928162000187565b506001600160801b03821115620000df5760405162461bcd60e51b815260206004820152601060248201526f537570706c7920746f6f206c6172676560801b60448201526064016200007e565b604080518082019091526001600160801b03808416808352429091166020909201829052600160801b909102176006556200011b8183620001d9565b826040516200012b919062000609565b60405180910390208460405162000143919062000609565b604051908190038120848252907f35d0b9713cc4b54bb91a9bfa420b091d37c592d49a7468dafe20b4cfbdfca02a9060200160405180910390a3505050506200064f565b600580546001600160a01b038381166001600160a01b0319831681179093556040519116919082907f8be0079c531659141344cd1fd0a4f28419497f9722a3daafe3b4186f6b6457e090600090a35050565b6001600160a01b038216620002055760405163ec442f0560e01b8152600060048201526024016200007e565b620002136000838362000217565b5050565b6001600160a01b038316620002465780600260008282546200023a919062000627565b90915550620002ba9050565b6001600160a01b038316600090815260208190526040902054818110156200029b5760405163391434e360e21b81526001600160a01b038516600482015260248101829052604481018390526064016200007e565b6001600160a01b03841660009081526020819052604090209082900390555b6001600160a01b038216620002d857600280548290039055620002f7565b6001600160a01b03821660009081526020819052604090208054820190555b816001600160a01b0316836001600160a01b03167fddf252ad1be2c89b69c2b068fc378daa952ba7f163c4a11628f55a4df523b3ef836040516200033d91815260200190565b60405180910390a3505050565b634e487b7160e01b600052604160045260246000fd5b60005b838110156200037d57818101518382015260200162000363565b50506000910152565b600082601f8301126200039857600080fd5b81516001600160401b0380821115620003b557620003b56200034a565b604051601f8301601f19908116603f01168101908282118183101715620003e057620003e06200034a565b81604052838152866020858801011115620003fa57600080fd5b6200040d84602083016020890162000360565b9695505050505050565b600080600080608085870312156200042e57600080fd5b84516001600160401b03808211156200044657600080fd5b620004548883890162000386565b955060208701519150808211156200046b57600080fd5b506200047a8782880162000386565b60408701516060880151919550935090506001600160a01b0381168114620004a157600080fd5b939692955090935050565b600181811c90821680620004c157607f821691505b602082108103620004e257634e487b7160e01b600052602260045260246000fd5b50919050565b601f82111562000538576000816000526020600020601f850160051c81016020861015620005135750805b601f850160051c820191505b8181101562000534578281556001016200051f565b5050505b505050565b81516001600160401b038111156200055957620005596200034a565b62000571816200056a8454620004ac565b84620004e8565b602080601f831160018114620005a95760008415620005905750858301515b600019600386901b1c1916600185901b17855562000534565b600085815260208120601f198616915b82811015620005da57888601518255948401946001909101908401620005b9565b5085821015620005f95787850151600019600388901b60f8161c191681555b5050505050600190811b01905550565b600082516200061d81846020870162000360565b9190910192915050565b808201808211156200064957634e487b7160e01b600052601160045260246000fd5b92915050565b610c60806200065f6000396000f3fe608060405234801561001057600080fd5b50600436106101365760003560e01c806370a08231116100b257806395d89b4111610081578063d16aad6111610066578063d16aad61146102b1578063dd62ed3e146102e4578063f2fde38b1461031d57600080fd5b806395d89b4114610296578063a9059cbb1461029e57600080fd5b806370a0823114610237578063715018a61461026057806379cc6790146102685780638da5cb5b1461027b57600080fd5b806323b872dd11610109578063313ce567116100ee578063313ce5671461020257806340c10f191461021157806342966c681461022457600080fd5b806323b872dd146101da5780632abff1f2146101ed57600080fd5b8063024fd6501461013b57806306fdde0314610190578063095ea7b3146101a557806318160ddd146101c8575b600080fd5b600654610162906fffffffffffffffffffffffffffffffff80821691600160801b90041682565b604080516fffffffffffffffffffffffffffffffff9384168152929091166020830152015b60405180910390f35b610198610330565b60405161018791906109d4565b6101b86101b3366004610a3f565b6103c2565b6040519015158152602001610187565b6002545b604051908152602001610187565b6101b86101e8366004610a69565b6103dc565b6102006101fb366004610aa5565b610400565b005b60405160128152602001610187565b61020061021f366004610a3f565b610445565b610200610232366004610b17565b6104d7565b6101cc610245366004610b30565b6001600160a01b031660009081526020819052604090205490565b6102006104e4565b610200610276366004610a3f565b6104f8565b6005546040516001600160a01b039091168152602001610187565b61019861058f565b6101b86102ac366004610a3f565b61059e565b600654604080516fffffffffffffffffffffffffffffffff8084168252600160801b909304909216602083015201610187565b6101cc6102f2366004610b52565b6001600160a01b03918216600090815260016020908152604080832093909416825291909152205490565b61020061032b366004610b30565b6105ac565b60606003805461033f90610b85565b80601f016020809104026020016040519081016040528092919081815260200182805461036b90610b85565b80156103b85780601f1061038d576101008083540402835291602001916103b8565b820191906000526020600020905b81548152906001019060200180831161039b57829003601f168201915b5050505050905090565b6000336103d08185856105e7565b60019150505b92915050565b6000336103ea8582856105f4565b6103f5858585610673565b506001949350505050565b6104086106d2565b7f5a04f11bb8ccd1e15ce158d3797e58bae12c7a32f33ff3ce2781917aad8374f68282604051610439929190610bbf565b60405180910390a15050565b61044d6106d2565b6006546fffffffffffffffffffffffffffffffff168161046c60025490565b6104769190610c04565b11156104c95760405162461bcd60e51b815260206004820152601260248201527f45786365656473206d617820737570706c79000000000000000000000000000060448201526064015b60405180910390fd5b6104d382826106ff565b5050565b6104e13382610735565b50565b6104ec6106d2565b6104f6600061076b565b565b6001600160a01b03821660009081526001602090815260408083203384529091529020548181101561056c5760405162461bcd60e51b815260206004820152601d60248201527f4275726e20616d6f756e74206578636565647320616c6c6f77616e636500000060448201526064016104c0565b610580833361057b8585610c17565b6105e7565b61058a8383610735565b505050565b60606004805461033f90610b85565b6000336103d0818585610673565b6105b46106d2565b6001600160a01b0381166105de57604051631e4fbdf760e01b8152600060048201526024016104c0565b6104e18161076b565b61058a83838360016107d5565b6001600160a01b0383811660009081526001602090815260408083209386168352929052205460001981101561066d578181101561065e57604051637dc7a0d960e11b81526001600160a01b038416600482015260248101829052604481018390526064016104c0565b61066d848484840360006107d5565b50505050565b6001600160a01b03831661069d57604051634b637e8f60e11b8152600060048201526024016104c0565b6001600160a01b0382166106c75760405163ec442f0560e01b8152600060048201526024016104c0565b61058a8383836108aa565b6005546001600160a01b031633146104f65760405163118cdaa760e01b81523360048201526024016104c0565b6001600160a01b0382166107295760405163ec442f0560e01b8152600060048201526024016104c0565b6104d3600083836108aa565b6001600160a01b03821661075f57604051634b637e8f60e11b8152600060048201526024016104c0565b6104d3826000836108aa565b600580546001600160a01b038381167fffffffffffffffffffffffff0000000000000000000000000000000000000000831681179093556040519116919082907f8be0079c531659141344cd1fd0a4f28419497f9722a3daafe3b4186f6b6457e090600090a35050565b6001600160a01b0384166107ff5760405163e602df0560e01b8152600060048201526024016104c0565b6001600160a01b03831661082957604051634a1406b160e11b8152600060048201526024016104c0565b6001600160a01b038085166000908152600160209081526040808320938716835292905220829055801561066d57826001600160a01b0316846001600160a01b03167f8c5be1e5ebec7d5bd14f71427d1e84f3dd0314c0f7b2291e5b200ac8c7c3b9258460405161089c91815260200190565b60405180910390a350505050565b6001600160a01b0383166108d55780600260008282546108ca9190610c04565b909155506109479050565b6001600160a01b038316600090815260208190526040902054818110156109285760405163391434e360e21b81526001600160a01b038516600482015260248101829052604481018390526064016104c0565b6001600160a01b03841660009081526020819052604090209082900390555b6001600160a01b03821661096357600280548290039055610982565b6001600160a01b03821660009081526020819052604090208054820190555b816001600160a01b0316836001600160a01b03167fddf252ad1be2c89b69c2b068fc378daa952ba7f163c4a11628f55a4df523b3ef836040516109c791815260200190565b60405180910390a3505050565b60006020808352835180602085015260005b81811015610a02578581018301518582016040015282016109e6565b506000604082860101526040601f19601f8301168501019250505092915050565b80356001600160a01b0381168114610a3a57600080fd5b919050565b60008060408385031215610a5257600080fd5b610a5b83610a23565b946020939093013593505050565b600080600060608486031215610a7e57600080fd5b610a8784610a23565b9250610a9560208501610a23565b9150604084013590509250925092565b60008060208385031215610ab857600080fd5b823567ffffffffffffffff80821115610ad057600080fd5b818501915085601f830112610ae457600080fd5b813581811115610af357600080fd5b866020828501011115610b0557600080fd5b60209290920196919550909350505050565b600060208284031215610b2957600080fd5b5035919050565b600060208284031215610b4257600080fd5b610b4b82610a23565b9392505050565b60008060408385031215610b6557600080fd5b610b6e83610a23565b9150610b7c60208401610a23565b90509250929050565b600181811c90821680610b9957607f821691505b602082108103610bb957634e487b7160e01b600052602260045260246000fd5b50919050565b60208152816020820152818360408301376000818301604090810191909152601f909201601f19160101919050565b634e487b7160e01b600052601160045260246000fd5b808201808211156103d6576103d6610bee565b818103818111156103d6576103d6610bee56fea264697066735822122098df5b293a1c671a274c30346bfe75fbd9a9e70ad0f823926d3d331ed9ca71e664736f6c63430008180033a264697066735822122015651244babb94b13691d86ff1efc65f77f6b36f487b79fa3215e1364a4a948264736f6c63430008180033",
  "linkReferences": {},
  "deployedLinkReferences": {}
}