{
  "_format": "hh-sol-artifact-1",
  "contractName": "SwapRouter",
  "sourceName": "contracts/SwapRouter.sol",
  "abi": [
    {
      "inputs": [],
      "stateMutability": "nonpayable",
      "type": "constructor"
    },
    {
      "inputs": [
        {
          "internalType": "address",
          "name": "owner",
          "type": "address"
        }
      ],
      "name": "OwnableInvalidOwner",
      "type": "error"
    },
    {
      "inputs": [
        {
          "internalType": "address",
          "name": "account",
          "type": "address"
        }
      ],
      "name": "OwnableUnauthorizedAccount",
      "type": "error"
    },
    {
      "inputs": [],
      "name": "ReentrancyGuardReentrantCall",
      "type": "error"
    },
    {
      "anonymous": false,
      "inputs": [
        {
          "indexed": true,
          "internalType": "address",
          "name": "token",
          "type": "address"
        },
        {
          "indexed": false,
          "internalType": "uint256",
          "name": "tokenAmount",
          "type": "uint256"
        },
        {
          "indexed": false,
          "internalType": "uint256",
          "name": "chzAmount",
          "type": "uint256"
        }
      ],
      "name": "LiquidityAdded",
      "type": "event"
    },
    {
      "anonymous": false,
      "inputs": [
        {
          "indexed": true,
          "internalType": "address",
          "name": "token",
          "type": "address"
        },
        {
          "indexed": false,
          "internalType": "uint256",
          "name": "tokenAmount",
          "type": "uint256"
        },
        {
          "indexed": false,
          "internalType": "uint256",
          "name": "chzAmount",
          "type": "uint256"
        }
      ],
      "name": "LiquidityRemoved",
      "type": "event"
    },
    {
      "anonymous": false,
      "inputs": [
        {
          "indexed": true,
          "internalType": "address",
          "name": "previousOwner",
          "type": "address"
        },
        {
          "indexed": true,
          "internalType": "address",
          "name": "newOwner",
          "type": "address"
        }
      ],
      "name": "OwnershipTransferred",
      "type": "event"
    },
    {
      "anonymous": false,
      "inputs": [
        {
          "indexed": true,
          "internalType": "address",
          "name": "token",
          "type": "address"
        },
        {
          "indexed": false,
          "internalType": "uint256",
          "name": "tokenAmount",
          "type": "uint256"
        },
        {
          "indexed": false,
          "internalType": "uint256",
          "name": "chzAmount",
          "type": "uint256"
        }
      ],
      "name": "PoolCreated",
      "type": "event"
    },
    {
      "anonymous": false,
      "inputs": [
        {
          "indexed": true,
          "internalType": "address",
          "name": "user",
          "type": "address"
        },
        {
          "indexed": true,
          "internalType": "address",
          "name": "token",
          "type": "address"
        },
        {
          "indexed": false,
          "internalType": "uint256",
          "name": "chzAmount",
          "type": "uint256"
        },
        {
          "indexed": false,
          "internalType": "uint256",
          "name": "tokenAmount",
          "type": "uint256"
        },
        {
          "indexed": false,
          "internalType": "bool",
          "name": "isChzToToken",
          "type": "bool"
        }
      ],
      "name": "SwapExecuted",
      "type": "event"
    },
    {
      "inputs": [],
      "name": "FEE_DENOMINATOR",
      "outputs": [
        {
          "internalType": "uint256",
          "name": "",
          "type": "uint256"
        }
      ],
      "stateMutability": "view",
      "type": "function"
    },
    {
      "inputs": [
        {
          "internalType": "address",
          "name": "tokenAddress",
          "type": "address"
        },
        {
          "internalType": "uint256",
          "name": "tokenAmount",
          "type": "uint256"
        }
      ],
      "name": "addLiquidity",
      "outputs": [],
      "stateMutability": "payable",
      "type": "function"
    },
    {
      "inputs": [
        {
          "internalType": "address",
          "name": "tokenAddress",
          "type": "address"
        },
        {
          "internalType": "uint256",
          "name": "tokenAmount",
          "type": "uint256"
        }
      ],
      "name": "createPool",
      "outputs": [],
      "stateMutability": "payable",
      "type": "function"
    },
    {
      "inputs": [],
      "name": "feeRate",
      "outputs": [
        {
          "internalType": "uint256",
          "name": "",
          "type": "uint256"
        }
      ],
      "stateMutability": "view",
      "type": "function"
    },
    {
      "inputs": [
        {
          "internalType": "address",
          "name": "tokenAddress",
          "type": "address"
        },
        {
          "internalType": "uint256",
          "name": "tokenAmount",
          "type": "uint256"
        }
      ],
      "name": "getChzAmountForToken",
      "outputs": [
        {
          "internalType": "uint256",
          "name": "",
          "type": "uint256"
        }
      ],
      "stateMutability": "view",
      "type": "function"
    },
    {
      "inputs": [
        {
          "internalType": "address",
          "name": "tokenAddress",
          "type": "address"
        }
      ],
      "name": "getPoolInfo",
      "outputs": [
        {
          "components": [
            {
              "internalType": "uint128",
              "name": "tokenReserves",
              "type": "uint128"
            },
            {
              "internalType": "uint128",
              "name": "chzReserves",
              "type": "uint128"
            }
          ],
          "internalType": "struct SwapRouter.Pool",
          "name": "",
          "type": "tuple"
        }
      ],
      "stateMutability": "view",
      "type": "function"
    },
    {
      "inputs": [
        {
          "internalType": "address",
          "name": "tokenAddress",
          "type": "address"
        },
        {
          "internalType": "uint256",
          "name": "chzAmount",
          "type": "uint256"
        }
      ],
      "name": "getTokenAmountForChz",
      "outputs": [
        {
          "internalType": "uint256",
          "name": "",
          "type": "uint256"
        }
      ],
      "stateMutability": "view",
      "type": "function"
    },
    {
      "inputs": [],
      "name": "owner",
      "outputs": [
        {
          "internalType": "address",
          "name": "",
          "type": "address"
        }
      ],
      "stateMutability": "view",
      "type": "function"
    },
    {
      "inputs": [
        {
          "internalType": "address",
          "name": "",
          "type": "address"
        }
      ],
      "name": "pools",
      "outputs": [
        {
          "internalType": "uint128",
          "name": "tokenReserves",
          "type": "uint128"
        },
        {
          "internalType": "uint128",
          "name": "chzReserves",
          "type": "uint128"
        }
      ],
      "stateMutability": "view",
      "type": "function"
    },
    {
      "inputs": [],
      "name": "renounceOwnership",
      "outputs": [],
      "stateMutability": "nonpayable",
      "type": "function"
    },
    {
      "inputs": [
        {
          "internalType": "uint256",
          "name": "newFeeRate",
          "type": "uint256"
        }
      ],
      "name": "setFeeRate",
      "outputs": [],
      "stateMutability": "nonpayable",
      "type": "function"
    },
    {
      "inputs": [
        {
          "internalType": "address",
          "name": "",
          "type": "address"
        }
      ],
      "name": "supportedTokens",
      "outputs": [
        {
          "internalType": "bool",
          "name": "",
          "type": "bool"
        }
      ],
      "stateMutability": "view",
      "type": "function"
    },
    {
      "inputs": [
        {
          "internalType": "address",
          "name": "tokenAddress",
          "type": "address"
        }
      ],
      "name": "swapChzToToken",
      "outputs": [],
      "stateMutability": "payable",
      "type": "function"
    },
    {
      "inputs": [
        {
          "internalType": "address",
          "name": "tokenAddress",
          "type": "address"
        },
        {
          "internalType": "uint256",
          "name": "tokenAmount",
          "type": "uint256"
        }
      ],
      "name": "swapTokenToChz",
      "outputs": [],
      "stateMutability": "nonpayable",
      "type": "function"
    },
    {
      "inputs": [
        {
          "internalType": "address",
          "name": "newOwner",
          "type": "address"
        }
      ],
      "name": "transferOwnership",
      "outputs": [],
      "stateMutability": "nonpayable",
      "type": "function"
    },
    {
      "inputs": [
        {
          "internalType": "address payable",
          "name": "to",
          "type": "address"
        },
        {
          "internalType": "uint256",
          "name": "amount",
          "type": "uint256"
        }
      ],
      "name": "withdrawFees",
      "outputs": [],
      "stateMutability": "nonpayable",
      "type": "function"
    },
    {
      "stateMutability": "payable",
      "type": "receive"
    }
  ],
  "bytecode": "0x6080604052601e60045534801561001557600080fd5b50338061003c57604051631e4fbdf760e01b81526000600482015260240160405180910390fd5b6100458161004f565b506001805561009f565b600080546001600160a01b038381166001600160a01b0319831681178455604051919092169283917f8be0079c531659141344cd1fd0a4f28419497f9722a3daafe3b4186f6b6457e09190a35050565b611537806100ae6000396000f3fe6080604052600436106100f75760003560e01c8063a4063dbc1161008a578063d73792a911610059578063d73792a91461034a578063dc985af914610360578063f2fde38b14610380578063ff1110de146103a057600080fd5b8063a4063dbc14610289578063ad3b1b47146102ea578063b821ec071461030a578063c8629a2c1461032a57600080fd5b806368c4ac26116100c657806368c4ac26146101e8578063715018a6146102285780638da5cb5b1461023d578063978bbdb91461026557600080fd5b806306bfa9381461010357806312d36171146101a057806345596e2e146101b557806356688700146101d557600080fd5b366100fe57005b600080fd5b34801561010f57600080fd5b5061017461011e3660046113ba565b6040805180820190915260008082526020820152506001600160a01b03166000908152600260209081526040918290208251808401909352546001600160801b038082168452600160801b909104169082015290565b6040805182516001600160801b0390811682526020938401511692810192909252015b60405180910390f35b6101b36101ae3660046113de565b6103b3565b005b3480156101c157600080fd5b506101b36101d036600461140a565b610676565b6101b36101e33660046113de565b6106d5565b3480156101f457600080fd5b506102186102033660046113ba565b60036020526000908152604090205460ff1681565b6040519015158152602001610197565b34801561023457600080fd5b506101b36109c2565b34801561024957600080fd5b506000546040516001600160a01b039091168152602001610197565b34801561027157600080fd5b5061027b60045481565b604051908152602001610197565b34801561029557600080fd5b506102ca6102a43660046113ba565b6002602052600090815260409020546001600160801b0380821691600160801b90041682565b604080516001600160801b03938416815292909116602083015201610197565b3480156102f657600080fd5b506101b36103053660046113de565b6109d6565b34801561031657600080fd5b5061027b6103253660046113de565b610a69565b34801561033657600080fd5b5061027b6103453660046113de565b610b39565b34801561035657600080fd5b5061027b61271081565b34801561036c57600080fd5b506101b361037b3660046113de565b610be2565b34801561038c57600080fd5b506101b361039b3660046113ba565b610f6e565b6101b36103ae3660046113ba565b610fac565b6103bb6112e6565b6001600160a01b0382166104165760405162461bcd60e51b815260206004820152600d60248201527f496e76616c696420746f6b656e0000000000000000000000000000000000000060448201526064015b60405180910390fd5b600034116104555760405162461bcd60e51b815260206004820152600c60248201526b10d216881c995c5d5a5c995960a21b604482015260640161040d565b600081116104a55760405162461bcd60e51b815260206004820152601560248201527f546f6b656e20616d6f756e742072657175697265640000000000000000000000604482015260640161040d565b6001600160a01b03821660009081526003602052604090205460ff161561050e5760405162461bcd60e51b815260206004820152600b60248201527f506f6f6c20657869737473000000000000000000000000000000000000000000604482015260640161040d565b6040516323b872dd60e01b81523360048201523060248201526044810182905282906001600160a01b038216906323b872dd906064016020604051808303816000875af1158015610563573d6000803e3d6000fd5b505050506040513d601f19601f820116820180604052508101906105879190611423565b6105c55760405162461bcd60e51b815260206004820152600f60248201526e151c985b9cd9995c8819985a5b1959608a1b604482015260640161040d565b6040805180820182526001600160801b0380851682523480821660208085019182526001600160a01b038916600081815260028352878120965193518616600160801b029390951692909217909455600390935290839020805460ff19166001179055915190917f620f7d92e94f37e846b7a037fa45c886f3ab726b58c6531813825a47ad4eec509161066091868252602082015260400190565b60405180910390a25061067260018055565b5050565b61067e611310565b6103e88111156106d05760405162461bcd60e51b815260206004820152600c60248201527f46656520746f6f20686967680000000000000000000000000000000000000000604482015260640161040d565b600455565b6106dd6112e6565b6001600160a01b03821660009081526003602052604090205460ff166107365760405162461bcd60e51b815260206004820152600e60248201526d141bdbdb081b9bdd08199bdd5b9960921b604482015260640161040d565b6000341180156107465750600081115b6107925760405162461bcd60e51b815260206004820152600f60248201527f496e76616c696420616d6f756e74730000000000000000000000000000000000604482015260640161040d565b6001600160a01b038216600090815260026020526040812080549091906001600160801b03600160801b82048116916107cc91163461145b565b6107d69190611472565b9050808310156108285760405162461bcd60e51b815260206004820152601960248201527f496e73756666696369656e7420746f6b656e20616d6f756e7400000000000000604482015260640161040d565b6040516323b872dd60e01b81523360048201523060248201526044810184905284906001600160a01b038216906323b872dd906064016020604051808303816000875af115801561087d573d6000803e3d6000fd5b505050506040513d601f19601f820116820180604052508101906108a19190611423565b6108df5760405162461bcd60e51b815260206004820152600f60248201526e151c985b9cd9995c8819985a5b1959608a1b604482015260640161040d565b8254849084906000906108fc9084906001600160801b0316611494565b92506101000a8154816001600160801b0302191690836001600160801b03160217905550348360000160108282829054906101000a90046001600160801b03166109469190611494565b92506101000a8154816001600160801b0302191690836001600160801b03160217905550846001600160a01b03167fac1d76749e5447b7b16f5ab61447e1bd502f3bb4807af3b28e620d1700a6ee4585346040516109ae929190918252602082015260400190565b60405180910390a250505061067260018055565b6109ca611310565b6109d4600061133d565b565b6109de611310565b47811115610a2e5760405162461bcd60e51b815260206004820152601460248201527f496e73756666696369656e742062616c616e6365000000000000000000000000604482015260640161040d565b6040516001600160a01b0383169082156108fc029083906000818181858888f19350505050158015610a64573d6000803e3d6000fd5b505050565b6001600160a01b03821660009081526002602090815260408083208151808301909252546001600160801b038082168352600160801b90910416918101829052901580610abe575080516001600160801b0316155b15610acd576000915050610b33565b600061271060045485610ae0919061145b565b610aea9190611472565b610af490856114bb565b90508082602001516001600160801b0316610b0f91906114ce565b8251610b24906001600160801b03168361145b565b610b2e9190611472565b925050505b92915050565b6001600160a01b03821660009081526002602090815260408083208151808301909252546001600160801b03808216808452600160801b9092041692820192909252901580610b93575060208101516001600160801b0316155b15610ba2576000915050610b33565b8051610bb89084906001600160801b03166114ce565b6020820151610bd0906001600160801b03168561145b565b610bda9190611472565b949350505050565b610bea6112e6565b60008111610c3a5760405162461bcd60e51b815260206004820152601560248201527f546f6b656e20616d6f756e742072657175697265640000000000000000000000604482015260640161040d565b6001600160a01b03821660009081526003602052604090205460ff16610c935760405162461bcd60e51b815260206004820152600e60248201526d141bdbdb081b9bdd08199bdd5b9960921b604482015260640161040d565b6001600160a01b038216600090815260026020526040812090610cb68484610b39565b905060008111610d085760405162461bcd60e51b815260206004820152601360248201527f496e76616c6964207377617020616d6f756e7400000000000000000000000000604482015260640161040d565b8154600160801b90046001600160801b0316811115610d695760405162461bcd60e51b815260206004820152601a60248201527f496e73756666696369656e742043485a206c6971756964697479000000000000604482015260640161040d565b600061271060045483610d7c919061145b565b610d869190611472565b90506000610d9482846114bb565b6040516323b872dd60e01b81523360048201523060248201526044810187905290915086906001600160a01b038216906323b872dd906064016020604051808303816000875af1158015610dec573d6000803e3d6000fd5b505050506040513d601f19601f82011682018060405250810190610e109190611423565b610e4e5760405162461bcd60e51b815260206004820152600f60248201526e151c985b9cd9995c8819985a5b1959608a1b604482015260640161040d565b845486908690600090610e6b9084906001600160801b0316611494565b92506101000a8154816001600160801b0302191690836001600160801b03160217905550838560000160108282829054906101000a90046001600160801b0316610eb591906114e1565b92506101000a8154816001600160801b0302191690836001600160801b03160217905550336001600160a01b03166108fc839081150290604051600060405180830381858888f19350505050158015610f12573d6000803e3d6000fd5b50604080518381526020810188905260008183015290516001600160a01b0389169133917f6c959b44d76c7cb77356d4eb7281bc3730607e7bf743955c3bf92c8438a1c88e9181900360600190a3505050505061067260018055565b610f76611310565b6001600160a01b038116610fa057604051631e4fbdf760e01b81526000600482015260240161040d565b610fa98161133d565b50565b610fb46112e6565b60003411610ff35760405162461bcd60e51b815260206004820152600c60248201526b10d216881c995c5d5a5c995960a21b604482015260640161040d565b6001600160a01b03811660009081526003602052604090205460ff1661104c5760405162461bcd60e51b815260206004820152600e60248201526d141bdbdb081b9bdd08199bdd5b9960921b604482015260640161040d565b6001600160a01b03811660009081526002602052604081209061106f8334610a69565b9050600081116110c15760405162461bcd60e51b815260206004820152601360248201527f496e76616c6964207377617020616d6f756e7400000000000000000000000000604482015260640161040d565b81546001600160801b031681111561111b5760405162461bcd60e51b815260206004820152601c60248201527f496e73756666696369656e7420746f6b656e206c697175696469747900000000604482015260640161040d565b60006127106004543461112e919061145b565b6111389190611472565b9050600061114682346114bb565b84549091508190859060109061116d908490600160801b90046001600160801b0316611494565b92506101000a8154816001600160801b0302191690836001600160801b03160217905550828460000160008282829054906101000a90046001600160801b03166111b791906114e1565b82546001600160801b039182166101009390930a92830291909202199091161790555060405163a9059cbb60e01b81523360048201526024810184905285906001600160a01b0382169063a9059cbb906044016020604051808303816000875af1158015611229573d6000803e3d6000fd5b505050506040513d601f19601f8201168201806040525081019061124d9190611423565b61128b5760405162461bcd60e51b815260206004820152600f60248201526e151c985b9cd9995c8819985a5b1959608a1b604482015260640161040d565b604080513481526020810186905260018183015290516001600160a01b0388169133917f6c959b44d76c7cb77356d4eb7281bc3730607e7bf743955c3bf92c8438a1c88e9181900360600190a35050505050610fa960018055565b60026001540361130957604051633ee5aeb560e01b815260040160405180910390fd5b6002600155565b6000546001600160a01b031633146109d45760405163118cdaa760e01b815233600482015260240161040d565b600080546001600160a01b038381167fffffffffffffffffffffffff0000000000000000000000000000000000000000831681178455604051919092169283917f8be0079c531659141344cd1fd0a4f28419497f9722a3daafe3b4186f6b6457e09190a35050565b6001600160a01b0381168114610fa957600080fd5b6000602082840312156113cc57600080fd5b81356113d7816113a5565b9392505050565b600080604083850312156113f157600080fd5b82356113fc816113a5565b946020939093013593505050565b60006020828403121561141c57600080fd5b5035919050565b60006020828403121561143557600080fd5b815180151581146113d757600080fd5b634e487b7160e01b600052601160045260246000fd5b8082028115828204841417610b3357610b33611445565b60008261148f57634e487b7160e01b600052601260045260246000fd5b500490565b6001600160801b038181168382160190808211156114b4576114b4611445565b5092915050565b81810381811115610b3357610b33611445565b80820180821115610b3357610b33611445565b6001600160801b038281168282160390808211156114b4576114b461144556fea264697066735822122046f32c220aedb1e734c28cd05fa0febf7ab17fb0d4b76b1bd7ba98c2cec2836c64736f6c63430008180033",
  "linkReferences": {},
  "deployedLinkReferences": {}
}